:020000040800F2
:10000000202700208901000839100008BD0F0008D2
:100010003510000845020008051100080000000026
:10002000000000000000000000000000A110000817
:100030002D0300080000000041100008C510000852
:10004000A3010008A3010008A3010008A301000800
:10005000A3010008A3010008A3010008A3010008F0
:10006000A3010008A3010008A3010008A3010008E0
:10007000A3010008A3010008A3010008A3010008D0
:10008000A3010008A3010008A3010008A3010008C0
:10009000A3010008A3010008A3010008A3010008B0
:1000A000A3010008F9100008A3010008A30100083B
:1000B000A3010008A3010008A3010008A301000890
:1000C000A3010008A3010008A3010008A301000880
:1000D000A3010008A3010008A3010008A301000870
:1000E000A3010008A3010008A301000800F002F822
:1000F00000F03AF80AA090E8000C82448344AAF188
:100100000107DA4501D100F02FF8AFF2090EBAE885
:100110000F0013F0010F18BFFB1A43F0010318473B
:10012000FC1400001C150000103A24BF78C878C1E8
:10013000FAD8520724BF30C830C144BF04680C60ED
:10014000704700000023002400250026103A28BF35
:1001500078C1FBD8520728BF30C148BF0B60704739
:100160001FB51FBD10B510BD00F031F81146FFF7E7
:10017000F7FF01F06BF800F04FF803B4FFF7F2FF60
:1001800003BC00F057F800000948804709480047C1
:10019000FEE7FEE7FEE7FEE7FEE7FEE7FEE7FEE737
:1001A000FEE7FEE704480549054A064B7047000094
:1001B000F5100008ED000008202100202027002075
:1001C0002023002020230020704770477047754689
:1001D00000F02CF8AE4605006946534620F00700B3
:1001E000854618B020B5FFF7DDFFBDE820404FF091
:1001F00000064FF000074FF000084FF0000BAC4630
:10020000ACE8C009ACE8C009ACE8C009ACE8C0097A
:1002100021F007018D46704710B50446AFF300800A
:100220002046BDE81040FFF7A8BF00000048704717
:100230002000002001491820ABBEFEE72600020086
:1002400070470000FEE7000010B540F29C04C2F2C7
:100250000004206840F2C003C2F20003421C186888
:10026000226009D340F2840CC2F2000CDCF80010CA
:10027000CCF8000008461960036840F2800E40F296
:10028000880CC2F2000EC2F2000C83B19A420ED367
:1002900000210160DEF80010DCF8002021F00101EF
:1002A000CEF8001042F001012268CCF8001041683D
:1002B00079B18A420DD3DEF800300021416023F08D
:1002C0000201DCF80030CEF8001043F00201CCF857
:1002D0000010816879B18A420DD3DEF80030002128
:1002E000816023F00401DCF80030CEF8001043F008
:1002F0000401CCF80010C16879B18A420DD3DEF850
:100300000010DCF8002021F00801CEF800100021D8
:10031000C16042F00800CCF800004EF60450CEF266
:1003200000004FF08051016010BD000070470000D8
:100330002DE9F04F82B00E68002E00F0FC8041F2F3
:100340000042C4F20102042340F2004E904208BF72
:1003500003234FF6FF7CC4F2010E00930024012317
:10036000C1F2100C4FF0000A4FF0000948E00127DD
:1003700004F00C030F229A402BEA020207FA03F35F
:100380004FEA9A051A4346F82520D1F804B040F206
:100390000C455FEACB22DEF8082054BF22EA0802AF
:1003A00042EA0802C4F20105CEF808202A685FEA92
:1003B0008B2354BF22EA080242EA08022A605FEA5D
:1003C0008B33DEF8042054BF22EA080242EA080216
:1003D0005FEACB33CEF80420DEF800204FF00103B3
:1003E00054BF22EA080242EA0802CEF800200E6852
:1003F0000AF1010A36FA0AF204F1040400F09B80C3
:1004000003FA0AF816EA080FF1D04E68664511DCC7
:10041000122E51D8DFE806F0340A424650505050B0
:10042000505050505050505050494D00D1F80C9001
:1004300042E000BF4FF6FF72C1F2210296420FDC8C
:100440000022C1F2110296421AD00022C1F2120219
:10045000964215D00022C1F22102964210D02BE024
:100460000022C1F2220296420AD00022C1F23102D9
:10047000964205D00022C1F2320296421CD100BF42
:100480008A6842B1012A14BFC0F81480C0F81080F5
:100490004FF0080910E04FF004090DE0CA6802F1BE
:1004A000080909E04FF0000906E0CA6802F10409F2
:1004B00002E0CA6802F10C0922460646BAF1080FAA
:1004C00024BF203A043637680F25954027EA0505F2
:1004D00009FA02F22A433260CA79D2067FF587AF61
:1004E00041F21803C4F202031A68AEF57E7642F0B8
:1004F00001021A601A6802F001020192019A2AF0C0
:10050000030256F802B040F60002C4F20102904223
:100510000FD040F60042C4F2010290423FF427AFF0
:1005200041F20002C4F20102009F904208BF02277C
:100530001EE700271CE702B0BDE8F08F002A08BFC5
:10054000090401617047000042F21C10C2F2000071
:100550000068704740F2140042F21C11C2F2000021
:10056000C2F2000100780A68104408607047000079
:1005700080B542F20000C4F20200016841F01001AF
:100580000160032000F0BCF80F2000F005F800F037
:1005900055F8002080BD0000B0B586B041F21801CA
:1005A000C4F202010A68044642F400620A60096863
:1005B00001A801F4006101910199694600F08EF9EA
:1005C00000F0AEF94DF68361C4F21B31A0FB0101CE
:1005D0004FF0FF3000EB914142F2C40042F600427E
:1005E000C2F20000C4F2010240F2E7330025C0E984
:1005F0000021C0E902530561856100F07DFB0546DD
:10060000C8B942F2C400C2F2000000F0EBFB05469C
:1006100088B9192000F034F80F2C0BD81920214686
:100620000022002500F040F840F21800C2F200005D
:10063000046000E00125284606B0B0BD82B041F25A
:100640001800C4F202000168022241F001010160B9
:10065000016801F0010101910199416841F0805167
:100660004160406800F08050009000980420C4F27F
:100670000100016862F31A61016002B07047000076
:10068000002848BF7047C1B200F01F00012202FAE3
:1006900000F04EF20012CEF2000242EAD10121F047
:1006A000030108607047000010B54EF60C5CCEF2F6
:1006B000000CDCF80030C3F3022E8EF00704042C8B
:1006C00028BF0424BEF103034FF0FF3E0EFA04F4EA
:1006D00038BF0023A14399400EFA03F39A43114314
:1006E00000F00F0200F160430901043A03F564438E
:1006F0006244002848BF02F10C03197010BD0000CD
:100700004EF60C51CEF200010A684FF6FF031A4074
:1007100060F30A2242F0806040F0FD70086070478C
:100720002DE9F04381B0002800F0858042F20008F6
:10073000C4F202080446D8F800000D4600F0070095
:1007400088420CD2D8F8000020F007002843C8F8EF
:100750000000D8F8000000F00700A8426BD1206824
:1007600041F204098107C4F2020917D5410705D5F2
:10077000D9F8001041F4E061C9F80010010705D56F
:10078000D9F8001041F46051C9F80010D9F80010F0
:10079000A26821F0F0011143C9F80010C00741D14F
:1007A000D8F8000000F00700A8420CD9D8F80000E3
:1007B00020F007002843C8F80000D8F8000000F037
:1007C0000700A84237D12068410707D5D9F80010A3
:1007D000E26821F4E0611143C9F80010000708D570
:1007E000D9F80000216920F4605040EAC100C9F83E
:1007F0000000D9F8002002F00C00082841F2002087
:10080000C0F27A004ED141F20A63C2F38341C0F6CE
:100810000003595CD20339D440F60010C0F23D0009
:1008200048433FE06068022809D0012829D159F8DF
:10083000041C890307D4012001B0BDE8F08359F8F6
:10084000041C8901F7D5D9F8001021F003010843F1
:10085000C9F80000FFF778FE064641F2883700BF6E
:10086000D9F80000616800F00C00B0EB810F97D060
:10087000FFF76AFE801BB842F2D9032001B0BDE841
:10088000F08359F8041C8907D5D5DCE7D9F8002096
:1008900041F20863C2F34042C0F600039A5C484349
:1008A000B0FBF2F0D9F8001041F2F052C1F303119D
:1008B000C0F60002515C40F2000220FA01F140F261
:1008C0001800C2F200000068C2F200021160FFF7D7
:1008D00063FE002001B0BDE8F08300000F2202603B
:1008E00041F20402C4F20202136803F003034360FE
:1008F000136803F0F0038360136803F4E063C360DC
:1009000012684FF4E06303EAD202026142F200008F
:10091000C4F20200006800F00700086070470000A1
:1009200040F2000041F20401C2F20000C4F20201F0
:100930000068096841F20062C1F3C221C0F60002FA
:10094000515CC840704700002DE9F04182B000289A
:1009500068D00446007841F20006C007C4F20206DF
:1009600025D0706800F00C0004281BD0706800F0DF
:100970000C00082802D17068C00313D460680028F6
:1009800000F06281B0F5A02F00F07681B0F5803FD5
:1009900000F07681306820F480303060306820F4D8
:1009A000802070E13068800301D56068D0B3207882
:1009B000800718D5706810F00C0F07D0706800F031
:1009C0000C0008286DD17068C0036AD430688007B5
:1009D00002D52069012825D13068616920F0F8002E
:1009E00040EAC1003060207800071FD4207840071B
:1009F00032D4E56995B1706800F00C00082840F029
:100A00008D80012D0ED07068216A00F480328A42F8
:100A100008D1616A00F47010884203D1002002B04E
:100A2000BDE8F081012002B0BDE8F081A069002896
:100A300060D00020C4F242200121C0F88014FFF7EA
:100A400083FD0546706A800700F18A80FFF77CFD10
:100A5000401B0228F6D924E1F06910F0805808D133
:100A6000F06940F08050F061F06900F08050009033
:100A7000009847F20007C4F200073868C00527D481
:100A8000386840F480703860FFF75EFD054600BFAF
:100A90003868C0051CD4FFF757FD401B6428F7D900
:100AA000FFE02069002840F20000C4F2422000F07C
:100AB000818001210160FFF747FD0546306880070E
:100AC0003FF58AAFFFF740FD401B0228F6D9E8E06A
:100AD000E068002800F08080052800F0968001285A
:100AE00000F09780306A20F001003062306A20F018
:100AF000040091E00020C4F242200021C0F88014DC
:100B0000FFF722FD054600BF706A80077FF56EAFD4
:100B1000FFF71AFD401B0228F6D9C2E00027C4F2F5
:100B2000422700203866FFF70FFD022D05460BD146
:100B30003068800140F1B980FFF706FD401B0228B4
:100B40004FF00300F4D96AE7306880017FF566AFA3
:100B5000FFF7FAFC401B02284FF00300F4D95EE7D0
:100B600040F20000C2F20000006844F6D351C1F226
:100B70006201A0FB0101480A019000BF00BF01987B
:100B8000411E002801913FF431AF00BF0198411E82
:100B9000002801913FF42AAF00BF0198411E0028B0
:100BA00001913FF423AF00BF0198411E002801913D
:100BB000E4D11BE700210160FFF7C6FC054600BF3A
:100BC000306880077FF50FAFFFF7BEFC401B02289F
:100BD0004FF00300F4D922E7306A20F001003062C0
:100BE000306A20F004003062FFF7AEFC054641F2A7
:100BF000883700BF306A80071DD5FFF7A5FC401B72
:100C0000B8424FF00300F5D909E7306A40F004001C
:100C10003062306A40F001003062FFF795FC054613
:100C200041F28837306A800705D4FFF78DFC401BFE
:100C3000B842F7D935E0B8F1000F7FF4DAAEF069C9
:100C400020F08050F061D4E6306820F480303060CD
:100C5000306820F480203060FFF776FC054600BF46
:100C6000306880037FF5A3AEFFF76EFC401B64285D
:100C70004FF00300F4D9D2E6306840F480203060B1
:100C8000306840F480303060FFF75EFC054600BFFE
:100C9000306880033FF58BAEFFF756FC401B64289D
:100CA000F6D9032002B0BDE8F081206AB0F5803F9C
:100CB00005D17168A26821F4003111437160716837
:100CC000626A21F474111143084370600120386690
:100CD000FFF73AFC044600BF306880013FF59EAE46
:100CE000FFF732FC001B02284FF00300F4D996E610
:100CF0007047000070470000002804BF01207047C3
:100D000010B5044690F83D0028B9002084F83C0056
:100D1000204600F065F8022084F83D00206840F28B
:100D2000FF730268C4F2000342F6004C9842C4F21A
:100D3000010C05DCB0F1804F0AD040F2004103E025
:100D4000604505D040F60001C4F20001884203D19D
:100D5000A16822F070020A43984205DCB0F1804F8E
:100D60000AD040F2004103E0604505D040F60001A2
:100D7000C4F20001884203D1216922F440720A437F
:100D8000A36922F08001D4F804E0E26819436045C9
:100D90000160C262C0F828E002D16169CCF830106D
:100DA000012141610269D20703D0026922F00102E8
:100DB0000261002084F8461084F83E1084F83F1049
:100DC00084F8401084F8411084F8421084F84310ED
:100DD00084F8441084F8451084F83D1010BD0000DC
:100DE0007047000090F83D1001291CBF012070479A
:100DF000022180F83D10006840F2FF72C168C4F221
:100E00000002904241F00101C16005DCB0F1804F69
:100E10000ED040F2004107E042F60041C4F2010169
:100E2000884205D040F60001C4F20001884206D194
:100E3000816801F00701062904BF0020704701689E
:100E400041F0010101600020704700007047000080
:100E500070B504460068C5680669B10716D515F077
:100E6000020113D06FF00201016101212177806935
:100E7000800703D02046FFF7E9FF05E0204600F099
:100E80008DF8204600F08CF800202077700718D5E8
:100E900015F0040015D020686FF0040101610221F3
:100EA0002177806910F4407F03D02046FFF7CEFF02
:100EB00005E0204600F072F8204600F071F80020AE
:100EC0002077300717D515F0080014D020686FF090
:100ED0000801016104212177C069800703D0204601
:100EE000FFF7B4FF05E0204600F058F8204600F078
:100EF00057F800202077F00618D515F0100015D00F
:100F000020686FF01001016108212177C06910F499
:100F1000407F03D02046FFF799FF05E0204600F010
:100F20003DF8204600F03CF800202077F00718BF7D
:100F300015F0010002D1300609D412E020686FF0EC
:100F400001010161204600F02DF8300609D515F0A9
:100F5000800006D020686FF0800101612046FFF715
:100F6000C7FE700609D515F0400006D020686FF066
:100F700040010161204600F01FF8B00658BF70BD67
:100F800015F0200008D021686FF0200220460A6189
:100F9000BDE87040FFF7AEBE70BD000070470000B6
:100FA00070470000006842F60041C4F20101884227
:100FB00018BF7047FFF7CEBA70470000FEE7000089
:100FC00070B584B041F21800C4F20200016841F229
:100FD000000441F0100101600168C4F2010401F055
:100FE0001001009100990168002241F02001016088
:100FF00001684FF4005501F020010091009901684B
:10100000002641F00401016000684FF4005100F037
:101010000400009000982046FFF790FA0120CDE9E7
:10102000010602200390694620460095FFF780F9EB
:1010300004B070BDFEE70000FEE700000000000005
:10104000EFF30980BFF36F8F114B1A6820E9F00F9F
:1010500010602DE908404FF0BF0080F31188BFF306
:101060004F8FBFF36F8F00F091F94FF0000080F3C6
:101070001188BDE8084019680868B0E8F00F80F3EF
:101080000988BFF36F8F704700BF00BF00BF00BF6C
:1010900010210020000000000000000000000000FF
:1010A000074B19680868B0E8F00F80F30988BFF3B0
:1010B0006F8F4FF0000080F311884EF00D0E7047D7
:1010C0001021002010B5BF2072B6EFF3118480F319
:1010D0001188BFF34F8FBFF36F8F62B6FFF7B4F87D
:1010E00072B684F31188BFF34F8FBFF36F8F62B670
:1010F00010BD00007047000042F2C400C2F20000C0
:10110000FFF7A6BEFEE7000042F2101A40F2840B81
:1011100040F2C00440F2800640F288074EF60458C0
:10112000C2F2000AC2F2000BC2F200040125C2F2B0
:101130000006C2F20007CEF200084FF0805900BF4F
:1011400041F20000C4F201004FF400510022FFF709
:10115000F5F940F29C00C2F200000068DAF80010D5
:101160002246496810F57A7F28BF5A46126800F572
:101170007A7042F82100306805FA01F13A680843B4
:10118000306022EA01003860C8F80090D8E700001B
:1011900040F29C0A42F2101B40F2840440F2C00567
:1011A00040F2800640F288074EF60458C2F2000A68
:1011B000C2F2000BC2F20004C2F20005C2F2000645
:1011C000C2F20007CEF200084FF0805941F2000051
:1011D000C4F201004FF400510122FFF7AFF9DAF831
:1011E0000000DBF800102A46496810F5FA7F28BF96
:1011F0002246126800F5FA7042F821003068012298
:1012000002FA01F13A680843306022EA01003860CE
:10121000C8F80090DAE700004EF61050CEF2000059
:10122000016821F00401016030BF016821F0040170
:10123000016030BF016821F00401016030BF016826
:1012400021F00401016030BFEAE7000090B0FFF731
:101250008FF900240120CDE90B44CDE90944069023
:101260000A904FF4E0104FF4803102250F9006A849
:10127000CDE90714CDE90D51FFF766FB18B1EFF387
:10128000108072B6FEE70F20CDE901054FF48060B3
:10129000CDE9040401A802210394FFF741FA20B12B
:1012A000EFF3108072B600BFFEE7FFF789FE40F251
:1012B000C00040F2A001C2F20000C2F200010160D1
:1012C00040F2840040F2B001C2F20000C2F200011C
:1012D000016042F20C10C2F20000009041F21920AD
:1012E000C0F60000802100220023002400F066F8F0
:1012F00042F2141541F20910C2F20005C0F60000D6
:10130000802100220223009500F058F842F21815BF
:1013100041F29110C2F20005C0F6000080210022C7
:101320000323009500F04AF84EF62050CEF200005C
:1013300001684FF2F82241F47F0101600168CFF6A5
:10134000FF7241F07F4101604FF2F021CFF6FF7153
:10135000445084504FF2F42241F63F13CFF6FF720F
:10136000C0F201038350072242500648006800681B
:1013700080F3088862B661B6BFF34F8FBFF36F8FFB
:1013800000DF00BF08ED00E0FEE7000040F288004B
:10139000C2F200000068B0FA80F04FF01F03A3EB28
:1013A000000040F28C01C0B2C2F2000151F82000EE
:1013B00042F21011C2F20001086070472DE9F04FAF
:1013C00081B040F20407C2F200079246BA6800906A
:1013D0001ABB40F2C406C2F20006700707D0F21D25
:1013E000F86822F00702B61A30441646F86000206A
:1013F00072073E60786007D042F20700304420F068
:101400000705AC1BFC6002E0FC6806F500550020F7
:10141000BD60C5E90000C6E9005440F204080A981E
:10142000C2F20008C64600BFDEF8006075680E2DE7
:1014300012D8D6F800E0DEF804500E2D0FD8DEF8F2
:10144000004065680E2D0CD8D4F800E02746DEF881
:1014500004500F2DE8D306E07746B64603E0374642
:1014600001E07746A646DEF80060A5F10F04112CD6
:101470003E6007D3724642F80F6F0F25546042F862
:101480000B5C3A60D8F80C200EF1080BA2EB0509B2
:1014900040F28C020024C2F20002CEF80040C0F8F4
:1014A00000B042F823B0042202EA810282F007076A
:1014B000002AD8F8082007EB8107CEF80C3008BFC7
:1014C0008F0007F1080CC2BB40F2C406C2F200064E
:1014D000F21D22F00707324655465FEA467A18BFEA
:1014E0003A46C8F800205207C8F804400BD116F05D
:1014F0000704344618BF3C46A6EB070204F5005427
:1015000018BF91440DE0324642F20704BAF1000FD1
:1015100018BF3A46144424F00704A4EB0209C8F8A3
:101520000C900022BAF1000FAA46C8F80840C4E99E
:10153000002218BF3E46C6E9004940F20408C2F244
:10154000000846463468676867450DD226687768A4
:1015500067450CD234686768674505D2266825461A
:1015600077686745EED303E03546264600E025461A
:101570003468A7EB0C02112A2C6008D306EB0C0789
:101580007A6046F80C402F606746C6F804C0A9EBA5
:101590000702C8F80C20002246F8082B06EB810150
:1015A000CEF810600439009E21F007014FF08077DB
:1015B00026F0010641F8047C076841F8200C42F24D
:1015C0001010A1F1400241E903A6C2F2000040F26E
:1015D0008801FA60CEF80820C0F800B0C2F200011D
:1015E00001200A6898401043086001B0BDE8F08F00
:1015F00000000000000000000102030406070809C3
:1016000000000000010203040102020304050607B2
:1016100008090A0B0C0D0E0F1010000040160008F0
:1016200000000020200000002801000860160008CB
:1016300020000020002700004401000800000000F6
:1016400000127A000000000000000000000000000E
:101650000020000001000000100000000000000059
:04000005080000ED02
:00000001FF
